{
    "contractName": "Main",
    "abi": [
        {
            "inputs": [
                {
                    "internalType": "uint256",
                    "name": "",
                    "type": "uint256"
                }
            ],
            "name": "DCList",
            "outputs": [
                {
                    "internalType": "address",
                    "name": "",
                    "type": "address"
                }
            ],
            "stateMutability": "view",
            "type": "function"
        },
        {
            "inputs": [
                {
                    "internalType": "uint256",
                    "name": "",
                    "type": "uint256"
                }
            ],
            "name": "consumerList",
            "outputs": [
                {
                    "internalType": "address",
                    "name": "",
                    "type": "address"
                }
            ],
            "stateMutability": "view",
            "type": "function"
        },
        {
            "inputs": [
                {
                    "internalType": "uint256",
                    "name": "",
                    "type": "uint256"
                }
            ],
            "name": "farmList",
            "outputs": [
                {
                    "internalType": "address",
                    "name": "",
                    "type": "address"
                }
            ],
            "stateMutability": "view",
            "type": "function"
        },
        {
            "inputs": [
                {
                    "internalType": "uint256",
                    "name": "",
                    "type": "uint256"
                }
            ],
            "name": "retailerList",
            "outputs": [
                {
                    "internalType": "address",
                    "name": "",
                    "type": "address"
                }
            ],
            "stateMutability": "view",
            "type": "function"
        },
        {
            "inputs": [
                {
                    "internalType": "uint256",
                    "name": "",
                    "type": "uint256"
                }
            ],
            "name": "userList",
            "outputs": [
                {
                    "internalType": "address",
                    "name": "",
                    "type": "address"
                }
            ],
            "stateMutability": "view",
            "type": "function"
        }
    ],
    "bytecode": "608060405234801561001057600080fd5b50610190806100206000396000f3fe608060405234801561001057600080fd5b50600436106100575760003560e01c806315baa8c01461005c5780638d716b361461008b5780639f4216e81461009e578063a9f38c71146100b1578063b9268c85146100c4575b600080fd5b61006f61006a366004610141565b6100d7565b6040516001600160a01b03909116815260200160405180910390f35b61006f610099366004610141565b610101565b61006f6100ac366004610141565b610111565b61006f6100bf366004610141565b610121565b61006f6100d2366004610141565b610131565b600481815481106100e757600080fd5b6000918252602090912001546001600160a01b0316905081565b600281815481106100e757600080fd5b600081815481106100e757600080fd5b600181815481106100e757600080fd5b600381815481106100e757600080fd5b60006020828403121561015357600080fd5b503591905056fea2646970667358221220ab127cbe301f96388261f4ef6f513442f17dfee116202efcc9f37bc0f4692d0364736f6c63430008130033",
    "sourcePath": "e:/Studies/TARUC/Degree/Year 2/Year 2 Sem 3/BlockChain/Blockchain-Assignment/Main.sol",
    "compiler": {
        "name": "solc",
        "version": "0.8.19+commit.7dd6d404"
    },
    "functionHashes": {
        "DCList(uint256)": "8d716b36",
        "consumerList(uint256)": "15baa8c0",
        "farmList(uint256)": "a9f38c71",
        "retailerList(uint256)": "b9268c85",
        "userList(uint256)": "9f4216e8"
    },
    "gasEstimates": {
        "creation": {
            "codeDepositCost": "80000",
            "executionCost": "129",
            "totalCost": "80129"
        },
        "external": {
            "DCList(uint256)": "4602",
            "consumerList(uint256)": "4580",
            "farmList(uint256)": "4646",
            "retailerList(uint256)": "4668",
            "userList(uint256)": "4624"
        }
    }
}