{
    "contractName": "User",
    "abi": [
        {
            "inputs": [],
            "name": "ID",
            "outputs": [
                {
                    "internalType": "string",
                    "name": "",
                    "type": "string"
                }
            ],
            "stateMutability": "view",
            "type": "function"
        },
        {
            "inputs": [],
            "name": "contact",
            "outputs": [
                {
                    "internalType": "string",
                    "name": "",
                    "type": "string"
                }
            ],
            "stateMutability": "view",
            "type": "function"
        },
        {
            "inputs": [],
            "name": "location",
            "outputs": [
                {
                    "internalType": "string",
                    "name": "",
                    "type": "string"
                }
            ],
            "stateMutability": "view",
            "type": "function"
        },
        {
            "inputs": [],
            "name": "name",
            "outputs": [
                {
                    "internalType": "string",
                    "name": "",
                    "type": "string"
                }
            ],
            "stateMutability": "view",
            "type": "function"
        },
        {
            "inputs": [],
            "name": "password",
            "outputs": [
                {
                    "internalType": "string",
                    "name": "",
                    "type": "string"
                }
            ],
            "stateMutability": "view",
            "type": "function"
        }
    ],
    "bytecode": "608060405234801561001057600080fd5b5061021a806100206000396000f3fe608060405234801561001057600080fd5b50600436106100575760003560e01c806306fdde031461005c578063224b610b1461007a57806333a8c45a14610082578063516f279e1461008a578063b3cea21714610092575b600080fd5b61006461009a565b604051610071919061015c565b60405180910390f35b610064610128565b610064610135565b610064610142565b61006461014f565b600280546100a7906101aa565b80601f01602080910402602001604051908101604052809291908181526020018280546100d3906101aa565b80156101205780601f106100f557610100808354040283529160200191610120565b820191906000526020600020905b81548152906001019060200180831161010357829003601f168201915b505050505081565b600180546100a7906101aa565b600480546100a7906101aa565b600380546100a7906101aa565b600080546100a7906101aa565b600060208083528351808285015260005b818110156101895785810183015185820160400152820161016d565b506000604082860101526040601f19601f8301168501019250505092915050565b600181811c908216806101be57607f821691505b6020821081036101de57634e487b7160e01b600052602260045260246000fd5b5091905056fea264697066735822122015f235e445bcc431b5bc4a46015b274e3422d4445f8347bf7f5e70f7d1d0eec964736f6c63430008130033",
    "sourcePath": "e:/Studies/TARUC/Degree/Year 2/Year 2 Sem 3/BlockChain/Blockchain-Assignment/User.sol",
    "compiler": {
        "name": "solc",
        "version": "0.8.19+commit.7dd6d404"
    },
    "functionHashes": {
        "ID()": "b3cea217",
        "contact()": "33a8c45a",
        "location()": "516f279e",
        "name()": "06fdde03",
        "password()": "224b610b"
    },
    "gasEstimates": {
        "creation": {
            "codeDepositCost": "107600",
            "executionCost": "153",
            "totalCost": "107753"
        },
        "external": {
            "ID()": "infinite",
            "contact()": "infinite",
            "location()": "infinite",
            "name()": "infinite",
            "password()": "infinite"
        }
    }
}